{
  "_format": "hh-sol-artifact-1",
  "contractName": "WorldgramBase",
  "sourceName": "contracts/WorldgramBase.sol",
  "abi": [
    {
      "anonymous": false,
      "inputs": [
        {
          "indexed": false,
          "internalType": "uint256",
          "name": "nftId",
          "type": "uint256"
        },
        {
          "indexed": false,
          "internalType": "address",
          "name": "nftAddress",
          "type": "address"
        }
      ],
      "name": "NFTAdded",
      "type": "event"
    },
    {
      "anonymous": false,
      "inputs": [
        {
          "indexed": true,
          "internalType": "address",
          "name": "previousOwner",
          "type": "address"
        },
        {
          "indexed": true,
          "internalType": "address",
          "name": "newOwner",
          "type": "address"
        }
      ],
      "name": "OwnershipTransferred",
      "type": "event"
    },
    {
      "inputs": [
        {
          "internalType": "bytes32",
          "name": "_key",
          "type": "bytes32"
        }
      ],
      "name": "deleteAddressSTORAGE",
      "outputs": [],
      "stateMutability": "nonpayable",
      "type": "function"
    },
    {
      "inputs": [
        {
          "internalType": "uint256",
          "name": "_nftId",
          "type": "uint256"
        }
      ],
      "name": "getNFTAddress",
      "outputs": [
        {
          "internalType": "address",
          "name": "",
          "type": "address"
        }
      ],
      "stateMutability": "view",
      "type": "function"
    },
    {
      "inputs": [
        {
          "internalType": "address",
          "name": "_nftContract",
          "type": "address"
        },
        {
          "internalType": "address",
          "name": "_to",
          "type": "address"
        },
        {
          "internalType": "uint256",
          "name": "_quantity",
          "type": "uint256"
        }
      ],
      "name": "gift",
      "outputs": [],
      "stateMutability": "nonpayable",
      "type": "function"
    },
    {
      "inputs": [
        {
          "internalType": "string",
          "name": "_name",
          "type": "string"
        },
        {
          "internalType": "string",
          "name": "_symbol",
          "type": "string"
        },
        {
          "internalType": "string",
          "name": "_baseURI",
          "type": "string"
        },
        {
          "internalType": "uint16",
          "name": "_maxSupply",
          "type": "uint16"
        },
        {
          "internalType": "uint256",
          "name": "_publicSalePrice",
          "type": "uint256"
        },
        {
          "internalType": "address",
          "name": "_recipient",
          "type": "address"
        }
      ],
      "name": "newNFT",
      "outputs": [],
      "stateMutability": "nonpayable",
      "type": "function"
    },
    {
      "inputs": [],
      "name": "nftFactory",
      "outputs": [
        {
          "internalType": "contract INFTFactory",
          "name": "",
          "type": "address"
        }
      ],
      "stateMutability": "view",
      "type": "function"
    },
    {
      "inputs": [],
      "name": "nftStorage",
      "outputs": [
        {
          "internalType": "contract INFTStorage",
          "name": "",
          "type": "address"
        }
      ],
      "stateMutability": "view",
      "type": "function"
    },
    {
      "inputs": [],
      "name": "owner",
      "outputs": [
        {
          "internalType": "address",
          "name": "",
          "type": "address"
        }
      ],
      "stateMutability": "view",
      "type": "function"
    },
    {
      "inputs": [
        {
          "internalType": "address",
          "name": "_nftContract",
          "type": "address"
        }
      ],
      "name": "pause",
      "outputs": [],
      "stateMutability": "nonpayable",
      "type": "function"
    },
    {
      "inputs": [],
      "name": "renounceOwnership",
      "outputs": [],
      "stateMutability": "nonpayable",
      "type": "function"
    },
    {
      "inputs": [
        {
          "internalType": "bytes32",
          "name": "_key",
          "type": "bytes32"
        },
        {
          "internalType": "address",
          "name": "_value",
          "type": "address"
        }
      ],
      "name": "setAddressSTORAGE",
      "outputs": [],
      "stateMutability": "nonpayable",
      "type": "function"
    },
    {
      "inputs": [
        {
          "internalType": "address",
          "name": "_nftContract",
          "type": "address"
        },
        {
          "internalType": "string",
          "name": "_newBaseURI",
          "type": "string"
        }
      ],
      "name": "setBaseUri",
      "outputs": [],
      "stateMutability": "nonpayable",
      "type": "function"
    },
    {
      "inputs": [
        {
          "internalType": "address",
          "name": "_nftFactory",
          "type": "address"
        }
      ],
      "name": "setNFTFactory",
      "outputs": [],
      "stateMutability": "nonpayable",
      "type": "function"
    },
    {
      "inputs": [
        {
          "internalType": "address",
          "name": "_nftImplementation",
          "type": "address"
        }
      ],
      "name": "setNFTImplementationNFTFACTORY",
      "outputs": [],
      "stateMutability": "nonpayable",
      "type": "function"
    },
    {
      "inputs": [
        {
          "internalType": "address",
          "name": "_nftStorage",
          "type": "address"
        }
      ],
      "name": "setNFTStorage",
      "outputs": [],
      "stateMutability": "nonpayable",
      "type": "function"
    },
    {
      "inputs": [
        {
          "internalType": "address",
          "name": "_nftContract",
          "type": "address"
        },
        {
          "internalType": "uint256",
          "name": "_newPublicSalePrice",
          "type": "uint256"
        }
      ],
      "name": "setPublicSalePrice",
      "outputs": [],
      "stateMutability": "nonpayable",
      "type": "function"
    },
    {
      "inputs": [
        {
          "internalType": "address",
          "name": "_nftContract",
          "type": "address"
        },
        {
          "internalType": "address",
          "name": "_newRecipient",
          "type": "address"
        }
      ],
      "name": "setRecipient",
      "outputs": [],
      "stateMutability": "nonpayable",
      "type": "function"
    },
    {
      "inputs": [
        {
          "internalType": "address",
          "name": "_nftContract",
          "type": "address"
        },
        {
          "internalType": "address",
          "name": "_worldgramBase",
          "type": "address"
        }
      ],
      "name": "setWorldgramBaseNFT721",
      "outputs": [],
      "stateMutability": "nonpayable",
      "type": "function"
    },
    {
      "inputs": [
        {
          "internalType": "address",
          "name": "_worldgramBase",
          "type": "address"
        }
      ],
      "name": "setWorldgramBaseNFTFACTORY",
      "outputs": [],
      "stateMutability": "nonpayable",
      "type": "function"
    },
    {
      "inputs": [
        {
          "internalType": "address",
          "name": "_worldgramBase",
          "type": "address"
        }
      ],
      "name": "setWorldgramBaseSTORAGE",
      "outputs": [],
      "stateMutability": "nonpayable",
      "type": "function"
    },
    {
      "inputs": [
        {
          "internalType": "address",
          "name": "newOwner",
          "type": "address"
        }
      ],
      "name": "transferOwnership",
      "outputs": [],
      "stateMutability": "nonpayable",
      "type": "function"
    },
    {
      "inputs": [
        {
          "internalType": "address",
          "name": "_nftContract",
          "type": "address"
        }
      ],
      "name": "unpause",
      "outputs": [],
      "stateMutability": "nonpayable",
      "type": "function"
    }
  ],
  "bytecode": "0x608060405234801561001057600080fd5b5061002d61002261003260201b60201c565b61003a60201b60201c565b6100fe565b600033905090565b60008060009054906101000a900473ffffffffffffffffffffffffffffffffffffffff169050816000806101000a81548173ffffffffffffffffffffffffffffffffffffffff021916908373ffffffffffffffffffffffffffffffffffffffff1602179055508173ffffffffffffffffffffffffffffffffffffffff168173ffffffffffffffffffffffffffffffffffffffff167f8be0079c531659141344cd1fd0a4f28419497f9722a3daafe3b4186f6b6457e060405160405180910390a35050565b611a908061010d6000396000f3fe608060405234801561001057600080fd5b50600436106101375760003560e01c806395dbee2d116100b8578063cb2d93ce1161007c578063cb2d93ce146102e6578063ccb6301c14610302578063d400cfd61461031e578063d5a521ba1461033a578063d63843cd14610356578063f2fde38b1461037457610137565b806395dbee2d146102445780639d18f77314610260578063ba49134214610290578063c2bab905146102ac578063c90db234146102ca57610137565b806378181ca6116100ff57806378181ca6146101b65780637b4c44fd146101d25780638ae83d6a146101ee5780638bc8407a1461020a5780638da5cb5b1461022657610137565b80630885b8c91461013c57806350e47e6e1461015857806357b001f914610174578063715018a61461019057806376a67a511461019a575b600080fd5b61015660048036038101906101519190611002565b610390565b005b610172600480360381019061016d9190611042565b61042b565b005b61018e60048036038101906101899190611042565b6104c3565b005b61019861052e565b005b6101b460048036038101906101af9190611042565b610542565b005b6101d060048036038101906101cb9190611144565b6105ad565b005b6101ec60048036038101906101e79190611042565b6106b7565b005b61020860048036038101906102039190611042565b61074f565b005b610224600480360381019061021f9190611233565b61079b565b005b61022e610812565b60405161023b9190611282565b60405180910390f35b61025e6004803603810190610259919061129d565b61083b565b005b61027a600480360381019061027591906112f0565b6108b5565b6040516102879190611282565b60405180910390f35b6102aa60048036038101906102a59190611233565b610980565b005b6102b46109f7565b6040516102c1919061137c565b60405180910390f35b6102e460048036038101906102df9190611042565b610a1d565b005b61030060048036038101906102fb9190611042565b610ab5565b005b61031c60048036038101906103179190611397565b610b01565b005b610338600480360381019061033391906113c4565b610b99565b005b610354600480360381019061034f9190611545565b610c10565b005b61035e610c87565b60405161036b91906115c2565b60405180910390f35b61038e60048036038101906103899190611042565b610cad565b005b610398610d30565b600160009054906101000a900473ffffffffffffffffffffffffffffffffffffffff1673ffffffffffffffffffffffffffffffffffffffff16635e8a2f2f83836040518363ffffffff1660e01b81526004016103f59291906115ec565b600060405180830381600087803b15801561040f57600080fd5b505af1158015610423573d6000803e3d6000fd5b505050505050565b610433610d30565b600260009054906101000a900473ffffffffffffffffffffffffffffffffffffffff1673ffffffffffffffffffffffffffffffffffffffff16634d73f507826040518263ffffffff1660e01b815260040161048e9190611282565b600060405180830381600087803b1580156104a857600080fd5b505af11580156104bc573d6000803e3d6000fd5b5050505050565b6104cb610d30565b8073ffffffffffffffffffffffffffffffffffffffff16633f4ba83a6040518163ffffffff1660e01b8152600401600060405180830381600087803b15801561051357600080fd5b505af1158015610527573d6000803e3d6000fd5b5050505050565b610536610d30565b6105406000610dae565b565b61054a610d30565b8073ffffffffffffffffffffffffffffffffffffffff16638456cb596040518163ffffffff1660e01b8152600401600060405180830381600087803b15801561059257600080fd5b505af11580156105a6573d6000803e3d6000fd5b5050505050565b6105b5610d30565b6000600260009054906101000a900473ffffffffffffffffffffffffffffffffffffffff1673ffffffffffffffffffffffffffffffffffffffff166345ad58c78b8b8b8b8b8b8b8b8b6040518a63ffffffff1660e01b815260040161062299989796959493929190611671565b6020604051808303816000875af1158015610641573d6000803e3d6000fd5b505050506040513d601f19601f820116820180604052508101906106659190611702565b905061067081610e72565b7fbfbd6eaa32590f39923570e3a50c82ac962fc5cfdc5adf2511b078618ebaf126600354826040516106a392919061172f565b60405180910390a150505050505050505050565b6106bf610d30565b600260009054906101000a900473ffffffffffffffffffffffffffffffffffffffff1673ffffffffffffffffffffffffffffffffffffffff16632d8a1999826040518263ffffffff1660e01b815260040161071a9190611282565b600060405180830381600087803b15801561073457600080fd5b505af1158015610748573d6000803e3d6000fd5b5050505050565b610757610d30565b80600160006101000a81548173ffffffffffffffffffffffffffffffffffffffff021916908373ffffffffffffffffffffffffffffffffffffffff16021790555050565b6107a3610d30565b8173ffffffffffffffffffffffffffffffffffffffff16633bbed4a0826040518263ffffffff1660e01b81526004016107dc9190611282565b600060405180830381600087803b1580156107f657600080fd5b505af115801561080a573d6000803e3d6000fd5b505050505050565b60008060009054906101000a900473ffffffffffffffffffffffffffffffffffffffff16905090565b610843610d30565b8273ffffffffffffffffffffffffffffffffffffffff1663cbce4c9783836040518363ffffffff1660e01b815260040161087e929190611758565b600060405180830381600087803b15801561089857600080fd5b505af11580156108ac573d6000803e3d6000fd5b50505050505050565b6000600160009054906101000a900473ffffffffffffffffffffffffffffffffffffffff1673ffffffffffffffffffffffffffffffffffffffff166306c83b1a8360405160200161090691906117f9565b604051602081830303815290604052805190602001206040518263ffffffff1660e01b8152600401610938919061181f565b602060405180830381865afa158015610955573d6000803e3d6000fd5b505050506040513d601f19601f820116820180604052508101906109799190611702565b9050919050565b610988610d30565b8173ffffffffffffffffffffffffffffffffffffffff16632d8a1999826040518263ffffffff1660e01b81526004016109c19190611282565b600060405180830381600087803b1580156109db57600080fd5b505af11580156109ef573d6000803e3d6000fd5b505050505050565b600160009054906101000a900473ffffffffffffffffffffffffffffffffffffffff1681565b610a25610d30565b600160009054906101000a900473ffffffffffffffffffffffffffffffffffffffff1673ffffffffffffffffffffffffffffffffffffffff16632d8a1999826040518263ffffffff1660e01b8152600401610a809190611282565b600060405180830381600087803b158015610a9a57600080fd5b505af1158015610aae573d6000803e3d6000fd5b5050505050565b610abd610d30565b80600260006101000a81548173ffffffffffffffffffffffffffffffffffffffff021916908373ffffffffffffffffffffffffffffffffffffffff16021790555050565b610b09610d30565b600160009054906101000a900473ffffffffffffffffffffffffffffffffffffffff1673ffffffffffffffffffffffffffffffffffffffff16635038305b826040518263ffffffff1660e01b8152600401610b64919061181f565b600060405180830381600087803b158015610b7e57600080fd5b505af1158015610b92573d6000803e3d6000fd5b5050505050565b610ba1610d30565b8173ffffffffffffffffffffffffffffffffffffffff1663791a2519826040518263ffffffff1660e01b8152600401610bda919061183a565b600060405180830381600087803b158015610bf457600080fd5b505af1158015610c08573d6000803e3d6000fd5b505050505050565b610c18610d30565b8173ffffffffffffffffffffffffffffffffffffffff1663a0bcfc7f826040518263ffffffff1660e01b8152600401610c5191906118c3565b600060405180830381600087803b158015610c6b57600080fd5b505af1158015610c7f573d6000803e3d6000fd5b505050505050565b600260009054906101000a900473ffffffffffffffffffffffffffffffffffffffff1681565b610cb5610d30565b600073ffffffffffffffffffffffffffffffffffffffff168173ffffffffffffffffffffffffffffffffffffffff1603610d24576040517f08c379a0000000000000000000000000000000000000000000000000000000008152600401610d1b90611957565b60405180910390fd5b610d2d81610dae565b50565b610d38610e99565b73ffffffffffffffffffffffffffffffffffffffff16610d56610812565b73ffffffffffffffffffffffffffffffffffffffff1614610dac576040517f08c379a0000000000000000000000000000000000000000000000000000000008152600401610da3906119c3565b60405180910390fd5b565b60008060009054906101000a900473ffffffffffffffffffffffffffffffffffffffff169050816000806101000a81548173ffffffffffffffffffffffffffffffffffffffff021916908373ffffffffffffffffffffffffffffffffffffffff1602179055508173ffffffffffffffffffffffffffffffffffffffff168173ffffffffffffffffffffffffffffffffffffffff167f8be0079c531659141344cd1fd0a4f28419497f9722a3daafe3b4186f6b6457e060405160405180910390a35050565b60036000815480929190610e8590611a12565b9190505550610e9660035482610ea1565b50565b600033905090565b600160009054906101000a900473ffffffffffffffffffffffffffffffffffffffff1673ffffffffffffffffffffffffffffffffffffffff16635e8a2f2f83604051602001610ef091906117f9565b60405160208183030381529060405280519060200120836040518363ffffffff1660e01b8152600401610f249291906115ec565b600060405180830381600087803b158015610f3e57600080fd5b505af1158015610f52573d6000803e3d6000fd5b505050505050565b6000604051905090565b600080fd5b600080fd5b6000819050919050565b610f8181610f6e565b8114610f8c57600080fd5b50565b600081359050610f9e81610f78565b92915050565b600073ffffffffffffffffffffffffffffffffffffffff82169050919050565b6000610fcf82610fa4565b9050919050565b610fdf81610fc4565b8114610fea57600080fd5b50565b600081359050610ffc81610fd6565b92915050565b6000806040838503121561101957611018610f64565b5b600061102785828601610f8f565b925050602061103885828601610fed565b9150509250929050565b60006020828403121561105857611057610f64565b5b600061106684828501610fed565b91505092915050565b600080fd5b600080fd5b600080fd5b60008083601f8401126110945761109361106f565b5b8235905067ffffffffffffffff8111156110b1576110b0611074565b5b6020830191508360018202830111156110cd576110cc611079565b5b9250929050565b600061ffff82169050919050565b6110eb816110d4565b81146110f657600080fd5b50565b600081359050611108816110e2565b92915050565b6000819050919050565b6111218161110e565b811461112c57600080fd5b50565b60008135905061113e81611118565b92915050565b600080600080600080600080600060c08a8c03121561116657611165610f64565b5b60008a013567ffffffffffffffff81111561118457611183610f69565b5b6111908c828d0161107e565b995099505060208a013567ffffffffffffffff8111156111b3576111b2610f69565b5b6111bf8c828d0161107e565b975097505060408a013567ffffffffffffffff8111156111e2576111e1610f69565b5b6111ee8c828d0161107e565b955095505060606112018c828d016110f9565b93505060806112128c828d0161112f565b92505060a06112238c828d01610fed565b9150509295985092959850929598565b6000806040838503121561124a57611249610f64565b5b600061125885828601610fed565b925050602061126985828601610fed565b9150509250929050565b61127c81610fc4565b82525050565b60006020820190506112976000830184611273565b92915050565b6000806000606084860312156112b6576112b5610f64565b5b60006112c486828701610fed565b93505060206112d586828701610fed565b92505060406112e68682870161112f565b9150509250925092565b60006020828403121561130657611305610f64565b5b60006113148482850161112f565b91505092915050565b6000819050919050565b600061134261133d61133884610fa4565b61131d565b610fa4565b9050919050565b600061135482611327565b9050919050565b600061136682611349565b9050919050565b6113768161135b565b82525050565b6000602082019050611391600083018461136d565b92915050565b6000602082840312156113ad576113ac610f64565b5b60006113bb84828501610f8f565b91505092915050565b600080604083850312156113db576113da610f64565b5b60006113e985828601610fed565b92505060206113fa8582860161112f565b9150509250929050565b600080fd5b6000601f19601f8301169050919050565b7f4e487b7100000000000000000000000000000000000000000000000000000000600052604160045260246000fd5b61145282611409565b810181811067ffffffffffffffff821117156114715761147061141a565b5b80604052505050565b6000611484610f5a565b90506114908282611449565b919050565b600067ffffffffffffffff8211156114b0576114af61141a565b5b6114b982611409565b9050602081019050919050565b82818337600083830152505050565b60006114e86114e384611495565b61147a565b90508281526020810184848401111561150457611503611404565b5b61150f8482856114c6565b509392505050565b600082601f83011261152c5761152b61106f565b5b813561153c8482602086016114d5565b91505092915050565b6000806040838503121561155c5761155b610f64565b5b600061156a85828601610fed565b925050602083013567ffffffffffffffff81111561158b5761158a610f69565b5b61159785828601611517565b9150509250929050565b60006115ac82611349565b9050919050565b6115bc816115a1565b82525050565b60006020820190506115d760008301846115b3565b92915050565b6115e681610f6e565b82525050565b600060408201905061160160008301856115dd565b61160e6020830184611273565b9392505050565b600082825260208201905092915050565b60006116328385611615565b935061163f8385846114c6565b61164883611409565b840190509392505050565b61165c816110d4565b82525050565b61166b8161110e565b82525050565b600060c082019050818103600083015261168c818b8d611626565b905081810360208301526116a181898b611626565b905081810360408301526116b6818789611626565b90506116c56060830186611653565b6116d26080830185611662565b6116df60a0830184611273565b9a9950505050505050505050565b6000815190506116fc81610fd6565b92915050565b60006020828403121561171857611717610f64565b5b6000611726848285016116ed565b91505092915050565b60006040820190506117446000830185611662565b6117516020830184611273565b9392505050565b600060408201905061176d6000830185611273565b61177a6020830184611662565b9392505050565b600081905092915050565b7f6e66742e61646472657373436f6e747261637400000000000000000000000000600082015250565b60006117c2601383611781565b91506117cd8261178c565b601382019050919050565b6000819050919050565b6117f36117ee8261110e565b6117d8565b82525050565b6000611804826117b5565b915061181082846117e2565b60208201915081905092915050565b600060208201905061183460008301846115dd565b92915050565b600060208201905061184f6000830184611662565b92915050565b600081519050919050565b60005b8381101561187e578082015181840152602081019050611863565b60008484015250505050565b600061189582611855565b61189f8185611615565b93506118af818560208601611860565b6118b881611409565b840191505092915050565b600060208201905081810360008301526118dd818461188a565b905092915050565b7f4f776e61626c653a206e6577206f776e657220697320746865207a65726f206160008201527f6464726573730000000000000000000000000000000000000000000000000000602082015250565b6000611941602683611615565b915061194c826118e5565b604082019050919050565b6000602082019050818103600083015261197081611934565b9050919050565b7f4f776e61626c653a2063616c6c6572206973206e6f7420746865206f776e6572600082015250565b60006119ad602083611615565b91506119b882611977565b602082019050919050565b600060208201905081810360008301526119dc816119a0565b9050919050565b7f4e487b7100000000000000000000000000000000000000000000000000000000600052601160045260246000fd5b6000611a1d8261110e565b91507fffffffffffffffffffffffffffffffffffffffffffffffffffffffffffffffff8203611a4f57611a4e6119e3565b5b60018201905091905056fea2646970667358221220815ceffa09b6517fd562d4ed5d932e8209be1597d6243696a0e5c6b752741d5a64736f6c63430008120033",
  "linkReferences": {},
  "deployedLinkReferences": {}
}