{
  "_format": "hh-sol-artifact-1",
  "contractName": "NFT721",
  "sourceName": "contracts/NFT721.sol",
  "abi": [
    {
      "inputs": [],
      "stateMutability": "nonpayable",
      "type": "constructor"
    },
    {
      "anonymous": false,
      "inputs": [
        {
          "indexed": true,
          "internalType": "address",
          "name": "owner",
          "type": "address"
        },
        {
          "indexed": true,
          "internalType": "address",
          "name": "approved",
          "type": "address"
        },
        {
          "indexed": true,
          "internalType": "uint256",
          "name": "tokenId",
          "type": "uint256"
        }
      ],
      "name": "Approval",
      "type": "event"
    },
    {
      "anonymous": false,
      "inputs": [
        {
          "indexed": true,
          "internalType": "address",
          "name": "owner",
          "type": "address"
        },
        {
          "indexed": true,
          "internalType": "address",
          "name": "operator",
          "type": "address"
        },
        {
          "indexed": false,
          "internalType": "bool",
          "name": "approved",
          "type": "bool"
        }
      ],
      "name": "ApprovalForAll",
      "type": "event"
    },
    {
      "anonymous": false,
      "inputs": [
        {
          "indexed": false,
          "internalType": "uint8",
          "name": "version",
          "type": "uint8"
        }
      ],
      "name": "Initialized",
      "type": "event"
    },
    {
      "anonymous": false,
      "inputs": [
        {
          "indexed": false,
          "internalType": "address",
          "name": "account",
          "type": "address"
        }
      ],
      "name": "Paused",
      "type": "event"
    },
    {
      "anonymous": false,
      "inputs": [
        {
          "indexed": true,
          "internalType": "address",
          "name": "from",
          "type": "address"
        },
        {
          "indexed": true,
          "internalType": "address",
          "name": "to",
          "type": "address"
        },
        {
          "indexed": true,
          "internalType": "uint256",
          "name": "tokenId",
          "type": "uint256"
        }
      ],
      "name": "Transfer",
      "type": "event"
    },
    {
      "anonymous": false,
      "inputs": [
        {
          "indexed": false,
          "internalType": "address",
          "name": "account",
          "type": "address"
        }
      ],
      "name": "Unpaused",
      "type": "event"
    },
    {
      "inputs": [
        {
          "internalType": "address",
          "name": "to",
          "type": "address"
        },
        {
          "internalType": "uint256",
          "name": "tokenId",
          "type": "uint256"
        }
      ],
      "name": "approve",
      "outputs": [],
      "stateMutability": "nonpayable",
      "type": "function"
    },
    {
      "inputs": [
        {
          "internalType": "address",
          "name": "owner",
          "type": "address"
        }
      ],
      "name": "balanceOf",
      "outputs": [
        {
          "internalType": "uint256",
          "name": "",
          "type": "uint256"
        }
      ],
      "stateMutability": "view",
      "type": "function"
    },
    {
      "inputs": [],
      "name": "baseURI",
      "outputs": [
        {
          "internalType": "string",
          "name": "",
          "type": "string"
        }
      ],
      "stateMutability": "view",
      "type": "function"
    },
    {
      "inputs": [
        {
          "internalType": "uint256",
          "name": "tokenId",
          "type": "uint256"
        }
      ],
      "name": "getApproved",
      "outputs": [
        {
          "internalType": "address",
          "name": "",
          "type": "address"
        }
      ],
      "stateMutability": "view",
      "type": "function"
    },
    {
      "inputs": [
        {
          "internalType": "address",
          "name": "_to",
          "type": "address"
        },
        {
          "internalType": "uint256",
          "name": "_quantity",
          "type": "uint256"
        }
      ],
      "name": "gift",
      "outputs": [],
      "stateMutability": "nonpayable",
      "type": "function"
    },
    {
      "inputs": [
        {
          "internalType": "string",
          "name": "_name",
          "type": "string"
        },
        {
          "internalType": "string",
          "name": "_symbol",
          "type": "string"
        },
        {
          "internalType": "string",
          "name": "_baseURI",
          "type": "string"
        },
        {
          "internalType": "uint16",
          "name": "_maxSupply",
          "type": "uint16"
        },
        {
          "internalType": "uint256",
          "name": "_publicSalePrice",
          "type": "uint256"
        },
        {
          "internalType": "address",
          "name": "_recipient",
          "type": "address"
        },
        {
          "internalType": "address",
          "name": "_worldgramBase",
          "type": "address"
        }
      ],
      "name": "initialize",
      "outputs": [],
      "stateMutability": "nonpayable",
      "type": "function"
    },
    {
      "inputs": [
        {
          "internalType": "address",
          "name": "owner",
          "type": "address"
        },
        {
          "internalType": "address",
          "name": "operator",
          "type": "address"
        }
      ],
      "name": "isApprovedForAll",
      "outputs": [
        {
          "internalType": "bool",
          "name": "",
          "type": "bool"
        }
      ],
      "stateMutability": "view",
      "type": "function"
    },
    {
      "inputs": [],
      "name": "maxSupply",
      "outputs": [
        {
          "internalType": "uint16",
          "name": "",
          "type": "uint16"
        }
      ],
      "stateMutability": "view",
      "type": "function"
    },
    {
      "inputs": [],
      "name": "name",
      "outputs": [
        {
          "internalType": "string",
          "name": "",
          "type": "string"
        }
      ],
      "stateMutability": "view",
      "type": "function"
    },
    {
      "inputs": [],
      "name": "nextNFT",
      "outputs": [
        {
          "internalType": "uint256",
          "name": "",
          "type": "uint256"
        }
      ],
      "stateMutability": "view",
      "type": "function"
    },
    {
      "inputs": [
        {
          "internalType": "uint256",
          "name": "tokenId",
          "type": "uint256"
        }
      ],
      "name": "ownerOf",
      "outputs": [
        {
          "internalType": "address",
          "name": "",
          "type": "address"
        }
      ],
      "stateMutability": "view",
      "type": "function"
    },
    {
      "inputs": [],
      "name": "pause",
      "outputs": [],
      "stateMutability": "nonpayable",
      "type": "function"
    },
    {
      "inputs": [],
      "name": "paused",
      "outputs": [
        {
          "internalType": "bool",
          "name": "",
          "type": "bool"
        }
      ],
      "stateMutability": "view",
      "type": "function"
    },
    {
      "inputs": [
        {
          "internalType": "uint256",
          "name": "_quantity",
          "type": "uint256"
        }
      ],
      "name": "publicSaleMint",
      "outputs": [],
      "stateMutability": "payable",
      "type": "function"
    },
    {
      "inputs": [],
      "name": "publicSalePrice",
      "outputs": [
        {
          "internalType": "uint256",
          "name": "",
          "type": "uint256"
        }
      ],
      "stateMutability": "view",
      "type": "function"
    },
    {
      "inputs": [
        {
          "internalType": "address",
          "name": "from",
          "type": "address"
        },
        {
          "internalType": "address",
          "name": "to",
          "type": "address"
        },
        {
          "internalType": "uint256",
          "name": "tokenId",
          "type": "uint256"
        }
      ],
      "name": "safeTransferFrom",
      "outputs": [],
      "stateMutability": "nonpayable",
      "type": "function"
    },
    {
      "inputs": [
        {
          "internalType": "address",
          "name": "from",
          "type": "address"
        },
        {
          "internalType": "address",
          "name": "to",
          "type": "address"
        },
        {
          "internalType": "uint256",
          "name": "tokenId",
          "type": "uint256"
        },
        {
          "internalType": "bytes",
          "name": "data",
          "type": "bytes"
        }
      ],
      "name": "safeTransferFrom",
      "outputs": [],
      "stateMutability": "nonpayable",
      "type": "function"
    },
    {
      "inputs": [
        {
          "internalType": "address",
          "name": "operator",
          "type": "address"
        },
        {
          "internalType": "bool",
          "name": "approved",
          "type": "bool"
        }
      ],
      "name": "setApprovalForAll",
      "outputs": [],
      "stateMutability": "nonpayable",
      "type": "function"
    },
    {
      "inputs": [
        {
          "internalType": "string",
          "name": "_newBaseURI",
          "type": "string"
        }
      ],
      "name": "setBaseUri",
      "outputs": [],
      "stateMutability": "nonpayable",
      "type": "function"
    },
    {
      "inputs": [
        {
          "internalType": "uint256",
          "name": "_newPublicSalePrice",
          "type": "uint256"
        }
      ],
      "name": "setPublicSalePrice",
      "outputs": [],
      "stateMutability": "nonpayable",
      "type": "function"
    },
    {
      "inputs": [
        {
          "internalType": "address",
          "name": "_newRecipient",
          "type": "address"
        }
      ],
      "name": "setRecipient",
      "outputs": [],
      "stateMutability": "nonpayable",
      "type": "function"
    },
    {
      "inputs": [
        {
          "internalType": "address",
          "name": "_worldgramBase",
          "type": "address"
        }
      ],
      "name": "setWorldgramBase",
      "outputs": [],
      "stateMutability": "nonpayable",
      "type": "function"
    },
    {
      "inputs": [
        {
          "internalType": "bytes4",
          "name": "interfaceId",
          "type": "bytes4"
        }
      ],
      "name": "supportsInterface",
      "outputs": [
        {
          "internalType": "bool",
          "name": "",
          "type": "bool"
        }
      ],
      "stateMutability": "view",
      "type": "function"
    },
    {
      "inputs": [],
      "name": "symbol",
      "outputs": [
        {
          "internalType": "string",
          "name": "",
          "type": "string"
        }
      ],
      "stateMutability": "view",
      "type": "function"
    },
    {
      "inputs": [
        {
          "internalType": "uint256",
          "name": "_tokenId",
          "type": "uint256"
        }
      ],
      "name": "tokenURI",
      "outputs": [
        {
          "internalType": "string",
          "name": "",
          "type": "string"
        }
      ],
      "stateMutability": "view",
      "type": "function"
    },
    {
      "inputs": [
        {
          "internalType": "address",
          "name": "from",
          "type": "address"
        },
        {
          "internalType": "address",
          "name": "to",
          "type": "address"
        },
        {
          "internalType": "uint256",
          "name": "tokenId",
          "type": "uint256"
        }
      ],
      "name": "transferFrom",
      "outputs": [],
      "stateMutability": "nonpayable",
      "type": "function"
    },
    {
      "inputs": [],
      "name": "unpause",
      "outputs": [],
      "stateMutability": "nonpayable",
      "type": "function"
    }
  ],
  "bytecode": "0x608060405234801561001057600080fd5b50614291806100206000396000f3fe60806040526004361061019c5760003560e01c806370a08231116100ec578063b3ab66b01161008a578063c87b56dd11610064578063c87b56dd1461057b578063cbce4c97146105b8578063d5abeb01146105e1578063e985e9c51461060c5761019c565b8063b3ab66b01461050d578063b88d4fde14610529578063bede3e5b146105525761019c565b806395d89b41116100c657806395d89b41146104655780639b6860c814610490578063a0bcfc7f146104bb578063a22cb465146104e45761019c565b806370a08231146103e8578063791a2519146104255780638456cb591461044e5761019c565b80632d8a19991161015957806342842e0e1161013357806342842e0e1461032c5780635c975abb146103555780636352211e146103805780636c0360eb146103bd5761019c565b80632d8a1999146102c35780633bbed4a0146102ec5780633f4ba83a146103155761019c565b806301ffc9a7146101a157806306ce60ba146101de57806306fdde0314610209578063081812fc14610234578063095ea7b31461027157806323b872dd1461029a575b600080fd5b3480156101ad57600080fd5b506101c860048036038101906101c391906128d5565b610649565b6040516101d5919061291d565b60405180910390f35b3480156101ea57600080fd5b506101f361072b565b6040516102009190612951565b60405180910390f35b34801561021557600080fd5b5061021e610732565b60405161022b91906129fc565b60405180910390f35b34801561024057600080fd5b5061025b60048036038101906102569190612a4a565b6107c4565b6040516102689190612ab8565b60405180910390f35b34801561027d57600080fd5b5061029860048036038101906102939190612aff565b61080a565b005b3480156102a657600080fd5b506102c160048036038101906102bc9190612b3f565b610921565b005b3480156102cf57600080fd5b506102ea60048036038101906102e59190612b92565b610981565b005b3480156102f857600080fd5b50610313600480360381019061030e9190612b92565b610a55565b005b34801561032157600080fd5b5061032a610b29565b005b34801561033857600080fd5b50610353600480360381019061034e9190612b3f565b610bc3565b005b34801561036157600080fd5b5061036a610be3565b604051610377919061291d565b60405180910390f35b34801561038c57600080fd5b506103a760048036038101906103a29190612a4a565b610bfa565b6040516103b49190612ab8565b60405180910390f35b3480156103c957600080fd5b506103d2610c80565b6040516103df91906129fc565b60405180910390f35b3480156103f457600080fd5b5061040f600480360381019061040a9190612b92565b610d0e565b60405161041c9190612951565b60405180910390f35b34801561043157600080fd5b5061044c60048036038101906104479190612a4a565b610dc5565b005b34801561045a57600080fd5b50610463610e5f565b005b34801561047157600080fd5b5061047a610ef9565b60405161048791906129fc565b60405180910390f35b34801561049c57600080fd5b506104a5610f8b565b6040516104b29190612951565b60405180910390f35b3480156104c757600080fd5b506104e260048036038101906104dd9190612cf4565b610f91565b005b3480156104f057600080fd5b5061050b60048036038101906105069190612d69565b611034565b005b61052760048036038101906105229190612a4a565b61104a565b005b34801561053557600080fd5b50610550600480360381019061054b9190612e4a565b611206565b005b34801561055e57600080fd5b5061057960048036038101906105749190612f67565b611268565b005b34801561058757600080fd5b506105a2600480360381019061059d9190612a4a565b611502565b6040516105af91906129fc565b60405180910390f35b3480156105c457600080fd5b506105df60048036038101906105da9190612aff565b61156b565b005b3480156105ed57600080fd5b506105f661176e565b6040516106039190613079565b60405180910390f35b34801561061857600080fd5b50610633600480360381019061062e9190613094565b611782565b604051610640919061291d565b60405180910390f35b60007f80ac58cd000000000000000000000000000000000000000000000000000000007bffffffffffffffffffffffffffffffffffffffffffffffffffffffff1916827bffffffffffffffffffffffffffffffffffffffffffffffffffffffff1916148061071457507f5b5e139f000000000000000000000000000000000000000000000000000000007bffffffffffffffffffffffffffffffffffffffffffffffffffffffff1916827bffffffffffffffffffffffffffffffffffffffffffffffffffffffff1916145b80610724575061072382611816565b5b9050919050565b6101005481565b60606065805461074190613103565b80601f016020809104026020016040519081016040528092919081815260200182805461076d90613103565b80156107ba5780601f1061078f576101008083540402835291602001916107ba565b820191906000526020600020905b81548152906001019060200180831161079d57829003601f168201915b5050505050905090565b60006107cf82611880565b6069600083815260200190815260200160002060009054906101000a900473ffffffffffffffffffffffffffffffffffffffff169050919050565b600061081582610bfa565b90508073ffffffffffffffffffffffffffffffffffffffff168373ffffffffffffffffffffffffffffffffffffffff1603610885576040517f08c379a000000000000000000000000000000000000000000000000000000000815260040161087c906131a6565b60405180910390fd5b8073ffffffffffffffffffffffffffffffffffffffff166108a46118cb565b73ffffffffffffffffffffffffffffffffffffffff1614806108d357506108d2816108cd6118cb565b611782565b5b610912576040517f08c379a000000000000000000000000000000000000000000000000000000000815260040161090990613238565b60405180910390fd5b61091c83836118d3565b505050565b61093261092c6118cb565b8261198c565b610971576040517f08c379a0000000000000000000000000000000000000000000000000000000008152600401610968906132ca565b60405180910390fd5b61097c838383611a21565b505050565b3373ffffffffffffffffffffffffffffffffffffffff1660fb60009054906101000a900473ffffffffffffffffffffffffffffffffffffffff1673ffffffffffffffffffffffffffffffffffffffff1614610a11576040517f08c379a0000000000000000000000000000000000000000000000000000000008152600401610a0890613336565b60405180910390fd5b8060fb60006101000a81548173ffffffffffffffffffffffffffffffffffffffff021916908373ffffffffffffffffffffffffffffffffffffffff16021790555050565b3373ffffffffffffffffffffffffffffffffffffffff1660fb60009054906101000a900473ffffffffffffffffffffffffffffffffffffffff1673ffffffffffffffffffffffffffffffffffffffff1614610ae5576040517f08c379a0000000000000000000000000000000000000000000000000000000008152600401610adc90613336565b60405180910390fd5b8060fc60006101000a81548173ffffffffffffffffffffffffffffffffffffffff021916908373ffffffffffffffffffffffffffffffffffffffff16021790555050565b3373ffffffffffffffffffffffffffffffffffffffff1660fb60009054906101000a900473ffffffffffffffffffffffffffffffffffffffff1673ffffffffffffffffffffffffffffffffffffffff1614610bb9576040517f08c379a0000000000000000000000000000000000000000000000000000000008152600401610bb090613336565b60405180910390fd5b610bc1611d1a565b565b610bde83838360405180602001604052806000815250611206565b505050565b6000609760009054906101000a900460ff16905090565b600080610c0683611d7d565b9050600073ffffffffffffffffffffffffffffffffffffffff168173ffffffffffffffffffffffffffffffffffffffff1603610c77576040517f08c379a0000000000000000000000000000000000000000000000000000000008152600401610c6e906133a2565b60405180910390fd5b80915050919050565b60fd8054610c8d90613103565b80601f0160208091040260200160405190810160405280929190818152602001828054610cb990613103565b8015610d065780601f10610cdb57610100808354040283529160200191610d06565b820191906000526020600020905b815481529060010190602001808311610ce957829003601f168201915b505050505081565b60008073ffffffffffffffffffffffffffffffffffffffff168273ffffffffffffffffffffffffffffffffffffffff1603610d7e576040517f08c379a0000000000000000000000000000000000000000000000000000000008152600401610d7590613434565b60405180910390fd5b606860008373ffffffffffffffffffffffffffffffffffffffff1673ffffffffffffffffffffffffffffffffffffffff168152602001908152602001600020549050919050565b3373ffffffffffffffffffffffffffffffffffffffff1660fb60009054906101000a900473ffffffffffffffffffffffffffffffffffffffff1673ffffffffffffffffffffffffffffffffffffffff1614610e55576040517f08c379a0000000000000000000000000000000000000000000000000000000008152600401610e4c90613336565b60405180910390fd5b8060ff8190555050565b3373ffffffffffffffffffffffffffffffffffffffff1660fb60009054906101000a900473ffffffffffffffffffffffffffffffffffffffff1673ffffffffffffffffffffffffffffffffffffffff1614610eef576040517f08c379a0000000000000000000000000000000000000000000000000000000008152600401610ee690613336565b60405180910390fd5b610ef7611dba565b565b606060668054610f0890613103565b80601f0160208091040260200160405190810160405280929190818152602001828054610f3490613103565b8015610f815780601f10610f5657610100808354040283529160200191610f81565b820191906000526020600020905b815481529060010190602001808311610f6457829003601f168201915b5050505050905090565b60ff5481565b3373ffffffffffffffffffffffffffffffffffffffff1660fb60009054906101000a900473ffffffffffffffffffffffffffffffffffffffff1673ffffffffffffffffffffffffffffffffffffffff1614611021576040517f08c379a000000000000000000000000000000000000000000000000000000000815260040161101890613336565b60405180910390fd5b8060fd90816110309190613600565b5050565b61104661103f6118cb565b8383611e1d565b5050565b6000811161108d576040517f08c379a00000000000000000000000000000000000000000000000000000000081526004016110849061371e565b60405180910390fd5b60fe60009054906101000a900461ffff1661ffff1681610100546110b1919061376d565b11156110f2576040517f08c379a00000000000000000000000000000000000000000000000000000000081526004016110e9906137ed565b60405180910390fd5b60ff5481611100919061380d565b341015611142576040517f08c379a00000000000000000000000000000000000000000000000000000000081526004016111399061389b565b60405180910390fd5b60fc60009054906101000a900473ffffffffffffffffffffffffffffffffffffffff1673ffffffffffffffffffffffffffffffffffffffff166108fc479081150290604051600060405180830381858888f193505050501580156111aa573d6000803e3d6000fd5b5060006101005490508161010060008282546111c6919061376d565b925050819055506000600190505b828111611201576111f03382846111eb919061376d565b611f89565b806111fa906138bb565b90506111d4565b505050565b6112176112116118cb565b8361198c565b611256576040517f08c379a000000000000000000000000000000000000000000000000000000000815260040161124d906132ca565b60405180910390fd5b61126284848484611fa7565b50505050565b60008060019054906101000a900460ff161590508080156112995750600160008054906101000a900460ff1660ff16105b806112c657506112a830612003565b1580156112c55750600160008054906101000a900460ff1660ff16145b5b611305576040517f08c379a00000000000000000000000000000000000000000000000000000000081526004016112fc90613975565b60405180910390fd5b60016000806101000a81548160ff021916908360ff1602179055508015611342576001600060016101000a81548160ff0219169083151502179055505b61134a612026565b6113dc8b8b8080601f016020809104026020016040519081016040528093929190818152602001838380828437600081840152601f19601f820116905080830192505050505050508a8a8080601f016020809104026020016040519081016040528093929190818152602001838380828437600081840152601f19601f82011690508083019250505050505050612075565b868660fd91826113ed9291906139a0565b508460fe60006101000a81548161ffff021916908361ffff1602179055508360ff819055508260fc60006101000a81548173ffffffffffffffffffffffffffffffffffffffff021916908373ffffffffffffffffffffffffffffffffffffffff1602179055508160fb60006101000a81548173ffffffffffffffffffffffffffffffffffffffff021916908373ffffffffffffffffffffffffffffffffffffffff16021790555061149c6120d2565b80156114f55760008060016101000a81548160ff0219169083151502179055507f7f26b83ff96e1f2b6a682f133852f6798a09c465da95921460cefb384740249860016040516114ec9190613ab8565b60405180910390a15b5050505050505050505050565b606061150d82611880565b600060fd805461151c90613103565b9050116115385760405180602001604052806000815250611564565b60fd611543836120dc565b604051602001611554929190613bde565b6040516020818303038152906040525b9050919050565b3373ffffffffffffffffffffffffffffffffffffffff1660fb60009054906101000a900473ffffffffffffffffffffffffffffffffffffffff1673ffffffffffffffffffffffffffffffffffffffff16146115fb576040517f08c379a00000000000000000000000000000000000000000000000000000000081526004016115f290613336565b60405180910390fd5b600073ffffffffffffffffffffffffffffffffffffffff168273ffffffffffffffffffffffffffffffffffffffff160361166a576040517f08c379a000000000000000000000000000000000000000000000000000000000815260040161166190613c59565b60405180910390fd5b600081116116ad576040517f08c379a00000000000000000000000000000000000000000000000000000000081526004016116a49061371e565b60405180910390fd5b60fe60009054906101000a900461ffff1661ffff1681610100546116d1919061376d565b1115611712576040517f08c379a0000000000000000000000000000000000000000000000000000000008152600401611709906137ed565b60405180910390fd5b600061010054905081610100600082825461172d919061376d565b925050819055506000600190505b82811161176857611757848284611752919061376d565b611f89565b80611761906138bb565b905061173b565b50505050565b60fe60009054906101000a900461ffff1681565b6000606a60008473ffffffffffffffffffffffffffffffffffffffff1673ffffffffffffffffffffffffffffffffffffffff16815260200190815260200160002060008373ffffffffffffffffffffffffffffffffffffffff1673ffffffffffffffffffffffffffffffffffffffff16815260200190815260200160002060009054906101000a900460ff16905092915050565b60007f01ffc9a7000000000000000000000000000000000000000000000000000000007bffffffffffffffffffffffffffffffffffffffffffffffffffffffff1916827bffffffffffffffffffffffffffffffffffffffffffffffffffffffff1916149050919050565b611889816121aa565b6118c8576040517f08c379a00000000000000000000000000000000000000000000000000000000081526004016118bf906133a2565b60405180910390fd5b50565b600033905090565b816069600083815260200190815260200160002060006101000a81548173ffffffffffffffffffffffffffffffffffffffff021916908373ffffffffffffffffffffffffffffffffffffffff160217905550808273ffffffffffffffffffffffffffffffffffffffff1661194683610bfa565b73ffffffffffffffffffffffffffffffffffffffff167f8c5be1e5ebec7d5bd14f71427d1e84f3dd0314c0f7b2291e5b200ac8c7c3b92560405160405180910390a45050565b60008061199883610bfa565b90508073ffffffffffffffffffffffffffffffffffffffff168473ffffffffffffffffffffffffffffffffffffffff1614806119da57506119d98185611782565b5b80611a1857508373ffffffffffffffffffffffffffffffffffffffff16611a00846107c4565b73ffffffffffffffffffffffffffffffffffffffff16145b91505092915050565b8273ffffffffffffffffffffffffffffffffffffffff16611a4182610bfa565b73ffffffffffffffffffffffffffffffffffffffff1614611a97576040517f08c379a0000000000000000000000000000000000000000000000000000000008152600401611a8e90613ceb565b60405180910390fd5b600073ffffffffffffffffffffffffffffffffffffffff168273ffffffffffffffffffffffffffffffffffffffff1603611b06576040517f08c379a0000000000000000000000000000000000000000000000000000000008152600401611afd90613d7d565b60405180910390fd5b611b1383838360016121eb565b8273ffffffffffffffffffffffffffffffffffffffff16611b3382610bfa565b73ffffffffffffffffffffffffffffffffffffffff1614611b89576040517f08c379a0000000000000000000000000000000000000000000000000000000008152600401611b8090613ceb565b60405180910390fd5b6069600082815260200190815260200160002060006101000a81549073ffffffffffffffffffffffffffffffffffffffff02191690556001606860008573ffffffffffffffffffffffffffffffffffffffff1673ffffffffffffffffffffffffffffffffffffffff168152602001908152602001600020600082825403925050819055506001606860008473ffffffffffffffffffffffffffffffffffffffff1673ffffffffffffffffffffffffffffffffffffffff16815260200190815260200160002060008282540192505081905550816067600083815260200190815260200160002060006101000a81548173ffffffffffffffffffffffffffffffffffffffff021916908373ffffffffffffffffffffffffffffffffffffffff160217905550808273ffffffffffffffffffffffffffffffffffffffff168473ffffffffffffffffffffffffffffffffffffffff167fddf252ad1be2c89b69c2b068fc378daa952ba7f163c4a11628f55a4df523b3ef60405160405180910390a4611d158383836001612205565b505050565b611d2261220b565b6000609760006101000a81548160ff0219169083151502179055507f5db9ee0a495bf2e6ff9c91a7834c1ba4fdd244a5e8aa4e537bd38aeae4b073aa611d666118cb565b604051611d739190612ab8565b60405180910390a1565b60006067600083815260200190815260200160002060009054906101000a900473ffffffffffffffffffffffffffffffffffffffff169050919050565b611dc2612254565b6001609760006101000a81548160ff0219169083151502179055507f62e78cea01bee320cd4e420270b5ea74000d11b0c9f74754ebdbfc544b05a258611e066118cb565b604051611e139190612ab8565b60405180910390a1565b8173ffffffffffffffffffffffffffffffffffffffff168373ffffffffffffffffffffffffffffffffffffffff1603611e8b576040517f08c379a0000000000000000000000000000000000000000000000000000000008152600401611e8290613de9565b60405180910390fd5b80606a60008573ffffffffffffffffffffffffffffffffffffffff1673ffffffffffffffffffffffffffffffffffffffff16815260200190815260200160002060008473ffffffffffffffffffffffffffffffffffffffff1673ffffffffffffffffffffffffffffffffffffffff16815260200190815260200160002060006101000a81548160ff0219169083151502179055508173ffffffffffffffffffffffffffffffffffffffff168373ffffffffffffffffffffffffffffffffffffffff167f17307eab39ab6107e8899845ad3d59bd9653f200f220920489ca2b5937696c3183604051611f7c919061291d565b60405180910390a3505050565b611fa382826040518060200160405280600081525061229e565b5050565b611fb2848484611a21565b611fbe848484846122f9565b611ffd576040517f08c379a0000000000000000000000000000000000000000000000000000000008152600401611ff490613e7b565b60405180910390fd5b50505050565b6000808273ffffffffffffffffffffffffffffffffffffffff163b119050919050565b600260c9540361206b576040517f08c379a000000000000000000000000000000000000000000000000000000000815260040161206290613ee7565b60405180910390fd5b600260c981905550565b600060019054906101000a900460ff166120c4576040517f08c379a00000000000000000000000000000000000000000000000000000000081526004016120bb90613f79565b60405180910390fd5b6120ce8282612480565b5050565b600160c981905550565b6060600060016120eb846124f3565b01905060008167ffffffffffffffff81111561210a57612109612bc9565b5b6040519080825280601f01601f19166020018201604052801561213c5781602001600182028036833780820191505090505b509050600082602001820190505b60011561219f578080600190039150507f3031323334353637383961626364656600000000000000000000000000000000600a86061a8153600a858161219357612192613f99565b5b0494506000850361214a575b819350505050919050565b60008073ffffffffffffffffffffffffffffffffffffffff166121cc83611d7d565b73ffffffffffffffffffffffffffffffffffffffff1614159050919050565b6121f3612254565b6121ff84848484612646565b50505050565b50505050565b612213610be3565b612252576040517f08c379a000000000000000000000000000000000000000000000000000000000815260040161224990614014565b60405180910390fd5b565b61225c610be3565b1561229c576040517f08c379a000000000000000000000000000000000000000000000000000000000815260040161229390614080565b60405180910390fd5b565b6122a8838361264c565b6122b560008484846122f9565b6122f4576040517f08c379a00000000000000000000000000000000000000000000000000000000081526004016122eb90613e7b565b60405180910390fd5b505050565b600061231a8473ffffffffffffffffffffffffffffffffffffffff16612003565b15612473578373ffffffffffffffffffffffffffffffffffffffff1663150b7a026123436118cb565b8786866040518563ffffffff1660e01b815260040161236594939291906140f5565b6020604051808303816000875af19250505080156123a157506040513d601f19601f8201168201806040525081019061239e9190614156565b60015b612423573d80600081146123d1576040519150601f19603f3d011682016040523d82523d6000602084013e6123d6565b606091505b50600081510361241b576040517f08c379a000000000000000000000000000000000000000000000000000000000815260040161241290613e7b565b60405180910390fd5b805181602001fd5b63150b7a0260e01b7bffffffffffffffffffffffffffffffffffffffffffffffffffffffff1916817bffffffffffffffffffffffffffffffffffffffffffffffffffffffff191614915050612478565b600190505b949350505050565b600060019054906101000a900460ff166124cf576040517f08c379a00000000000000000000000000000000000000000000000000000000081526004016124c690613f79565b60405180910390fd5b81606590816124de9190613600565b5080606690816124ee9190613600565b505050565b600080600090507a184f03e93ff9f4daa797ed6e38ed64bf6a1f0100000000000000008310612551577a184f03e93ff9f4daa797ed6e38ed64bf6a1f010000000000000000838161254757612546613f99565b5b0492506040810190505b6d04ee2d6d415b85acef8100000000831061258e576d04ee2d6d415b85acef8100000000838161258457612583613f99565b5b0492506020810190505b662386f26fc1000083106125bd57662386f26fc1000083816125b3576125b2613f99565b5b0492506010810190505b6305f5e10083106125e6576305f5e10083816125dc576125db613f99565b5b0492506008810190505b612710831061260b57612710838161260157612600613f99565b5b0492506004810190505b6064831061262e576064838161262457612623613f99565b5b0492506002810190505b600a831061263d576001810190505b80915050919050565b50505050565b600073ffffffffffffffffffffffffffffffffffffffff168273ffffffffffffffffffffffffffffffffffffffff16036126bb576040517f08c379a00000000000000000000000000000000000000000000000000000000081526004016126b2906141cf565b60405180910390fd5b6126c4816121aa565b15612704576040517f08c379a00000000000000000000000000000000000000000000000000000000081526004016126fb9061423b565b60405180910390fd5b6127126000838360016121eb565b61271b816121aa565b1561275b576040517f08c379a00000000000000000000000000000000000000000000000000000000081526004016127529061423b565b60405180910390fd5b6001606860008473ffffffffffffffffffffffffffffffffffffffff1673ffffffffffffffffffffffffffffffffffffffff16815260200190815260200160002060008282540192505081905550816067600083815260200190815260200160002060006101000a81548173ffffffffffffffffffffffffffffffffffffffff021916908373ffffffffffffffffffffffffffffffffffffffff160217905550808273ffffffffffffffffffffffffffffffffffffffff16600073ffffffffffffffffffffffffffffffffffffffff167fddf252ad1be2c89b69c2b068fc378daa952ba7f163c4a11628f55a4df523b3ef60405160405180910390a4612865600083836001612205565b5050565b6000604051905090565b600080fd5b600080fd5b60007fffffffff0000000000000000000000000000000000000000000000000000000082169050919050565b6128b28161287d565b81146128bd57600080fd5b50565b6000813590506128cf816128a9565b92915050565b6000602082840312156128eb576128ea612873565b5b60006128f9848285016128c0565b91505092915050565b60008115159050919050565b61291781612902565b82525050565b6000602082019050612932600083018461290e565b92915050565b6000819050919050565b61294b81612938565b82525050565b60006020820190506129666000830184612942565b92915050565b600081519050919050565b600082825260208201905092915050565b60005b838110156129a657808201518184015260208101905061298b565b60008484015250505050565b6000601f19601f8301169050919050565b60006129ce8261296c565b6129d88185612977565b93506129e8818560208601612988565b6129f1816129b2565b840191505092915050565b60006020820190508181036000830152612a1681846129c3565b905092915050565b612a2781612938565b8114612a3257600080fd5b50565b600081359050612a4481612a1e565b92915050565b600060208284031215612a6057612a5f612873565b5b6000612a6e84828501612a35565b91505092915050565b600073ffffffffffffffffffffffffffffffffffffffff82169050919050565b6000612aa282612a77565b9050919050565b612ab281612a97565b82525050565b6000602082019050612acd6000830184612aa9565b92915050565b612adc81612a97565b8114612ae757600080fd5b50565b600081359050612af981612ad3565b92915050565b60008060408385031215612b1657612b15612873565b5b6000612b2485828601612aea565b9250506020612b3585828601612a35565b9150509250929050565b600080600060608486031215612b5857612b57612873565b5b6000612b6686828701612aea565b9350506020612b7786828701612aea565b9250506040612b8886828701612a35565b9150509250925092565b600060208284031215612ba857612ba7612873565b5b6000612bb684828501612aea565b91505092915050565b600080fd5b600080fd5b7f4e487b7100000000000000000000000000000000000000000000000000000000600052604160045260246000fd5b612c01826129b2565b810181811067ffffffffffffffff82111715612c2057612c1f612bc9565b5b80604052505050565b6000612c33612869565b9050612c3f8282612bf8565b919050565b600067ffffffffffffffff821115612c5f57612c5e612bc9565b5b612c68826129b2565b9050602081019050919050565b82818337600083830152505050565b6000612c97612c9284612c44565b612c29565b905082815260208101848484011115612cb357612cb2612bc4565b5b612cbe848285612c75565b509392505050565b600082601f830112612cdb57612cda612bbf565b5b8135612ceb848260208601612c84565b91505092915050565b600060208284031215612d0a57612d09612873565b5b600082013567ffffffffffffffff811115612d2857612d27612878565b5b612d3484828501612cc6565b91505092915050565b612d4681612902565b8114612d5157600080fd5b50565b600081359050612d6381612d3d565b92915050565b60008060408385031215612d8057612d7f612873565b5b6000612d8e85828601612aea565b9250506020612d9f85828601612d54565b9150509250929050565b600067ffffffffffffffff821115612dc457612dc3612bc9565b5b612dcd826129b2565b9050602081019050919050565b6000612ded612de884612da9565b612c29565b905082815260208101848484011115612e0957612e08612bc4565b5b612e14848285612c75565b509392505050565b600082601f830112612e3157612e30612bbf565b5b8135612e41848260208601612dda565b91505092915050565b60008060008060808587031215612e6457612e63612873565b5b6000612e7287828801612aea565b9450506020612e8387828801612aea565b9350506040612e9487828801612a35565b925050606085013567ffffffffffffffff811115612eb557612eb4612878565b5b612ec187828801612e1c565b91505092959194509250565b600080fd5b600080fd5b60008083601f840112612eed57612eec612bbf565b5b8235905067ffffffffffffffff811115612f0a57612f09612ecd565b5b602083019150836001820283011115612f2657612f25612ed2565b5b9250929050565b600061ffff82169050919050565b612f4481612f2d565b8114612f4f57600080fd5b50565b600081359050612f6181612f3b565b92915050565b60008060008060008060008060008060e08b8d031215612f8a57612f89612873565b5b60008b013567ffffffffffffffff811115612fa857612fa7612878565b5b612fb48d828e01612ed7565b9a509a505060208b013567ffffffffffffffff811115612fd757612fd6612878565b5b612fe38d828e01612ed7565b985098505060408b013567ffffffffffffffff81111561300657613005612878565b5b6130128d828e01612ed7565b965096505060606130258d828e01612f52565b94505060806130368d828e01612a35565b93505060a06130478d828e01612aea565b92505060c06130588d828e01612aea565b9150509295989b9194979a5092959850565b61307381612f2d565b82525050565b600060208201905061308e600083018461306a565b92915050565b600080604083850312156130ab576130aa612873565b5b60006130b985828601612aea565b92505060206130ca85828601612aea565b9150509250929050565b7f4e487b7100000000000000000000000000000000000000000000000000000000600052602260045260246000fd5b6000600282049050600182168061311b57607f821691505b60208210810361312e5761312d6130d4565b5b50919050565b7f4552433732313a20617070726f76616c20746f2063757272656e74206f776e6560008201527f7200000000000000000000000000000000000000000000000000000000000000602082015250565b6000613190602183612977565b915061319b82613134565b604082019050919050565b600060208201905081810360008301526131bf81613183565b9050919050565b7f4552433732313a20617070726f76652063616c6c6572206973206e6f7420746f60008201527f6b656e206f776e6572206f7220617070726f76656420666f7220616c6c000000602082015250565b6000613222603d83612977565b915061322d826131c6565b604082019050919050565b6000602082019050818103600083015261325181613215565b9050919050565b7f4552433732313a2063616c6c6572206973206e6f7420746f6b656e206f776e6560008201527f72206f7220617070726f76656400000000000000000000000000000000000000602082015250565b60006132b4602d83612977565b91506132bf82613258565b604082019050919050565b600060208201905081810360008301526132e3816132a7565b9050919050565b7f4f6e6c79206261736520617574686f72697a6564000000000000000000000000600082015250565b6000613320601483612977565b915061332b826132ea565b602082019050919050565b6000602082019050818103600083015261334f81613313565b9050919050565b7f4552433732313a20696e76616c696420746f6b656e2049440000000000000000600082015250565b600061338c601883612977565b915061339782613356565b602082019050919050565b600060208201905081810360008301526133bb8161337f565b9050919050565b7f4552433732313a2061646472657373207a65726f206973206e6f74206120766160008201527f6c6964206f776e65720000000000000000000000000000000000000000000000602082015250565b600061341e602983612977565b9150613429826133c2565b604082019050919050565b6000602082019050818103600083015261344d81613411565b9050919050565b60008190508160005260206000209050919050565b60006020601f8301049050919050565b600082821b905092915050565b6000600883026134b67fffffffffffffffffffffffffffffffffffffffffffffffffffffffffffffffff82613479565b6134c08683613479565b95508019841693508086168417925050509392505050565b6000819050919050565b60006134fd6134f86134f384612938565b6134d8565b612938565b9050919050565b6000819050919050565b613517836134e2565b61352b61352382613504565b848454613486565b825550505050565b600090565b613540613533565b61354b81848461350e565b505050565b5b8181101561356f57613564600082613538565b600181019050613551565b5050565b601f8211156135b45761358581613454565b61358e84613469565b8101602085101561359d578190505b6135b16135a985613469565b830182613550565b50505b505050565b600082821c905092915050565b60006135d7600019846008026135b9565b1980831691505092915050565b60006135f083836135c6565b9150826002028217905092915050565b6136098261296c565b67ffffffffffffffff81111561362257613621612bc9565b5b61362c8254613103565b613637828285613573565b600060209050601f83116001811461366a5760008415613658578287015190505b61366285826135e4565b8655506136ca565b601f19841661367886613454565b60005b828110156136a05784890151825560018201915060208501945060208101905061367b565b868310156136bd57848901516136b9601f8916826135c6565b8355505b6001600288020188555050505b505050505050565b7f5175616e74697479206d7573742062652067726561746572207468616e203000600082015250565b6000613708601f83612977565b9150613713826136d2565b602082019050919050565b60006020820190508181036000830152613737816136fb565b9050919050565b7f4e487b7100000000000000000000000000000000000000000000000000000000600052601160045260246000fd5b600061377882612938565b915061378383612938565b925082820190508082111561379b5761379a61373e565b5b92915050565b7f536f6c64206f7574000000000000000000000000000000000000000000000000600082015250565b60006137d7600883612977565b91506137e2826137a1565b602082019050919050565b60006020820190508181036000830152613806816137ca565b9050919050565b600061381882612938565b915061382383612938565b925082820261383181612938565b915082820484148315176138485761384761373e565b5b5092915050565b7f4e6f7420656e6f7567682066756e647300000000000000000000000000000000600082015250565b6000613885601083612977565b91506138908261384f565b602082019050919050565b600060208201905081810360008301526138b481613878565b9050919050565b60006138c682612938565b91507fffffffffffffffffffffffffffffffffffffffffffffffffffffffffffffffff82036138f8576138f761373e565b5b600182019050919050565b7f496e697469616c697a61626c653a20636f6e747261637420697320616c72656160008201527f647920696e697469616c697a6564000000000000000000000000000000000000602082015250565b600061395f602e83612977565b915061396a82613903565b604082019050919050565b6000602082019050818103600083015261398e81613952565b9050919050565b600082905092915050565b6139aa8383613995565b67ffffffffffffffff8111156139c3576139c2612bc9565b5b6139cd8254613103565b6139d8828285613573565b6000601f831160018114613a0757600084156139f5578287013590505b6139ff85826135e4565b865550613a67565b601f198416613a1586613454565b60005b82811015613a3d57848901358255600182019150602085019450602081019050613a18565b86831015613a5a5784890135613a56601f8916826135c6565b8355505b6001600288020188555050505b50505050505050565b6000819050919050565b600060ff82169050919050565b6000613aa2613a9d613a9884613a70565b6134d8565b613a7a565b9050919050565b613ab281613a87565b82525050565b6000602082019050613acd6000830184613aa9565b92915050565b600081905092915050565b60008154613aeb81613103565b613af58186613ad3565b94506001821660008114613b105760018114613b2557613b58565b60ff1983168652811515820286019350613b58565b613b2e85613454565b60005b83811015613b5057815481890152600182019150602081019050613b31565b838801955050505b50505092915050565b6000613b6c8261296c565b613b768185613ad3565b9350613b86818560208601612988565b80840191505092915050565b7f2e6a736f6e000000000000000000000000000000000000000000000000000000600082015250565b6000613bc8600583613ad3565b9150613bd382613b92565b600582019050919050565b6000613bea8285613ade565b9150613bf68284613b61565b9150613c0182613bbb565b91508190509392505050565b7f5a65726f20616464726573730000000000000000000000000000000000000000600082015250565b6000613c43600c83612977565b9150613c4e82613c0d565b602082019050919050565b60006020820190508181036000830152613c7281613c36565b9050919050565b7f4552433732313a207472616e736665722066726f6d20696e636f72726563742060008201527f6f776e6572000000000000000000000000000000000000000000000000000000602082015250565b6000613cd5602583612977565b9150613ce082613c79565b604082019050919050565b60006020820190508181036000830152613d0481613cc8565b9050919050565b7f4552433732313a207472616e7366657220746f20746865207a65726f2061646460008201527f7265737300000000000000000000000000000000000000000000000000000000602082015250565b6000613d67602483612977565b9150613d7282613d0b565b604082019050919050565b60006020820190508181036000830152613d9681613d5a565b9050919050565b7f4552433732313a20617070726f766520746f2063616c6c657200000000000000600082015250565b6000613dd3601983612977565b9150613dde82613d9d565b602082019050919050565b60006020820190508181036000830152613e0281613dc6565b9050919050565b7f4552433732313a207472616e7366657220746f206e6f6e20455243373231526560008201527f63656976657220696d706c656d656e7465720000000000000000000000000000602082015250565b6000613e65603283612977565b9150613e7082613e09565b604082019050919050565b60006020820190508181036000830152613e9481613e58565b9050919050565b7f5265656e7472616e637947756172643a207265656e7472616e742063616c6c00600082015250565b6000613ed1601f83612977565b9150613edc82613e9b565b602082019050919050565b60006020820190508181036000830152613f0081613ec4565b9050919050565b7f496e697469616c697a61626c653a20636f6e7472616374206973206e6f74206960008201527f6e697469616c697a696e67000000000000000000000000000000000000000000602082015250565b6000613f63602b83612977565b9150613f6e82613f07565b604082019050919050565b60006020820190508181036000830152613f9281613f56565b9050919050565b7f4e487b7100000000000000000000000000000000000000000000000000000000600052601260045260246000fd5b7f5061757361626c653a206e6f7420706175736564000000000000000000000000600082015250565b6000613ffe601483612977565b915061400982613fc8565b602082019050919050565b6000602082019050818103600083015261402d81613ff1565b9050919050565b7f5061757361626c653a2070617573656400000000000000000000000000000000600082015250565b600061406a601083612977565b915061407582614034565b602082019050919050565b600060208201905081810360008301526140998161405d565b9050919050565b600081519050919050565b600082825260208201905092915050565b60006140c7826140a0565b6140d181856140ab565b93506140e1818560208601612988565b6140ea816129b2565b840191505092915050565b600060808201905061410a6000830187612aa9565b6141176020830186612aa9565b6141246040830185612942565b818103606083015261413681846140bc565b905095945050505050565b600081519050614150816128a9565b92915050565b60006020828403121561416c5761416b612873565b5b600061417a84828501614141565b91505092915050565b7f4552433732313a206d696e7420746f20746865207a65726f2061646472657373600082015250565b60006141b9602083612977565b91506141c482614183565b602082019050919050565b600060208201905081810360008301526141e8816141ac565b9050919050565b7f4552433732313a20746f6b656e20616c7265616479206d696e74656400000000600082015250565b6000614225601c83612977565b9150614230826141ef565b602082019050919050565b6000602082019050818103600083015261425481614218565b905091905056fea26469706673582212202fc4cd7d4b1c4e455f3cf7014eaa133cb688b3d0abac7d4ec752383bde9c67e664736f6c63430008120033",
  "linkReferences": {},
  "deployedLinkReferences": {}
}