{
  "_format": "hh-sol-artifact-1",
  "contractName": "NFTFactory",
  "sourceName": "contracts/NFTFactory.sol",
  "abi": [
    {
      "inputs": [
        {
          "internalType": "address",
          "name": "_worldgramBase",
          "type": "address"
        },
        {
          "internalType": "address",
          "name": "_nftImplementation",
          "type": "address"
        }
      ],
      "stateMutability": "nonpayable",
      "type": "constructor"
    },
    {
      "anonymous": false,
      "inputs": [
        {
          "indexed": false,
          "internalType": "address",
          "name": "nftContractAddress",
          "type": "address"
        },
        {
          "indexed": false,
          "internalType": "string",
          "name": "name",
          "type": "string"
        },
        {
          "indexed": false,
          "internalType": "string",
          "name": "symbol",
          "type": "string"
        },
        {
          "indexed": false,
          "internalType": "string",
          "name": "baseURI",
          "type": "string"
        },
        {
          "indexed": false,
          "internalType": "uint16",
          "name": "maxSupply",
          "type": "uint16"
        },
        {
          "indexed": false,
          "internalType": "uint256",
          "name": "publicSalePrice",
          "type": "uint256"
        },
        {
          "indexed": false,
          "internalType": "address",
          "name": "recipient",
          "type": "address"
        }
      ],
      "name": "NFTContractCreated",
      "type": "event"
    },
    {
      "inputs": [
        {
          "internalType": "string",
          "name": "_name",
          "type": "string"
        },
        {
          "internalType": "string",
          "name": "_symbol",
          "type": "string"
        },
        {
          "internalType": "string",
          "name": "_baseURI",
          "type": "string"
        },
        {
          "internalType": "uint16",
          "name": "_maxSupply",
          "type": "uint16"
        },
        {
          "internalType": "uint256",
          "name": "_publicSalePrice",
          "type": "uint256"
        },
        {
          "internalType": "address",
          "name": "_recipient",
          "type": "address"
        }
      ],
      "name": "createNFT",
      "outputs": [
        {
          "internalType": "address",
          "name": "",
          "type": "address"
        }
      ],
      "stateMutability": "nonpayable",
      "type": "function"
    },
    {
      "inputs": [
        {
          "internalType": "address",
          "name": "_nftImplementation",
          "type": "address"
        }
      ],
      "name": "setNFTImplementation",
      "outputs": [],
      "stateMutability": "nonpayable",
      "type": "function"
    },
    {
      "inputs": [
        {
          "internalType": "address",
          "name": "_worldgramBase",
          "type": "address"
        }
      ],
      "name": "setWorldgramBase",
      "outputs": [],
      "stateMutability": "nonpayable",
      "type": "function"
    }
  ],
  "bytecode": "0x608060405234801561001057600080fd5b50604051610b4e380380610b4e8339818101604052810190610032919061011d565b816000806101000a81548173ffffffffffffffffffffffffffffffffffffffff021916908373ffffffffffffffffffffffffffffffffffffffff16021790555080600160006101000a81548173ffffffffffffffffffffffffffffffffffffffff021916908373ffffffffffffffffffffffffffffffffffffffff160217905550505061015d565b600080fd5b600073ffffffffffffffffffffffffffffffffffffffff82169050919050565b60006100ea826100bf565b9050919050565b6100fa816100df565b811461010557600080fd5b50565b600081519050610117816100f1565b92915050565b60008060408385031215610134576101336100ba565b5b600061014285828601610108565b925050602061015385828601610108565b9150509250929050565b6109e28061016c6000396000f3fe608060405234801561001057600080fd5b50600436106100415760003560e01c80632d8a19991461004657806345ad58c7146100625780634d73f50714610092575b600080fd5b610060600480360381019061005b9190610529565b6100ae565b005b61007c6004803603810190610077919061062b565b61017f565b6040516100899190610729565b60405180910390f35b6100ac60048036038101906100a79190610529565b610335565b005b3373ffffffffffffffffffffffffffffffffffffffff1660008054906101000a900473ffffffffffffffffffffffffffffffffffffffff1673ffffffffffffffffffffffffffffffffffffffff161461013c576040517f08c379a0000000000000000000000000000000000000000000000000000000008152600401610133906107a1565b60405180910390fd5b806000806101000a81548173ffffffffffffffffffffffffffffffffffffffff021916908373ffffffffffffffffffffffffffffffffffffffff16021790555050565b60003373ffffffffffffffffffffffffffffffffffffffff1660008054906101000a900473ffffffffffffffffffffffffffffffffffffffff1673ffffffffffffffffffffffffffffffffffffffff161461020f576040517f08c379a0000000000000000000000000000000000000000000000000000000008152600401610206906107a1565b60405180910390fd5b600061023c600160009054906101000a900473ffffffffffffffffffffffffffffffffffffffff16610407565b90508073ffffffffffffffffffffffffffffffffffffffff1663bede3e5b8c8c8c8c8c8c8c8c8c60008054906101000a900473ffffffffffffffffffffffffffffffffffffffff166040518b63ffffffff1660e01b81526004016102a99a9998979695949392919061082c565b600060405180830381600087803b1580156102c357600080fd5b505af11580156102d7573d6000803e3d6000fd5b505050507fa16e649eecdf2f7bdf003f0cc9fb8dca356e0c649e29a75a16b6fbe1645c65b0818c8c8c8c8c8c8c8c8c60405161031c9a999897969594939291906108b6565b60405180910390a1809150509998505050505050505050565b3373ffffffffffffffffffffffffffffffffffffffff1660008054906101000a900473ffffffffffffffffffffffffffffffffffffffff1673ffffffffffffffffffffffffffffffffffffffff16146103c3576040517f08c379a00000000000000000000000000000000000000000000000000000000081526004016103ba906107a1565b60405180910390fd5b80600160006101000a81548173ffffffffffffffffffffffffffffffffffffffff021916908373ffffffffffffffffffffffffffffffffffffffff16021790555050565b6000763d602d80600a3d3981f3363d3d373d3d3d363d730000008260601b60e81c176000526e5af43d82803e903d91602b57fd5bf38260781b17602052603760096000f09050600073ffffffffffffffffffffffffffffffffffffffff168173ffffffffffffffffffffffffffffffffffffffff16036104bc576040517f08c379a00000000000000000000000000000000000000000000000000000000081526004016104b39061098c565b60405180910390fd5b919050565b600080fd5b600080fd5b600073ffffffffffffffffffffffffffffffffffffffff82169050919050565b60006104f6826104cb565b9050919050565b610506816104eb565b811461051157600080fd5b50565b600081359050610523816104fd565b92915050565b60006020828403121561053f5761053e6104c1565b5b600061054d84828501610514565b91505092915050565b600080fd5b600080fd5b600080fd5b60008083601f84011261057b5761057a610556565b5b8235905067ffffffffffffffff8111156105985761059761055b565b5b6020830191508360018202830111156105b4576105b3610560565b5b9250929050565b600061ffff82169050919050565b6105d2816105bb565b81146105dd57600080fd5b50565b6000813590506105ef816105c9565b92915050565b6000819050919050565b610608816105f5565b811461061357600080fd5b50565b600081359050610625816105ff565b92915050565b600080600080600080600080600060c08a8c03121561064d5761064c6104c1565b5b60008a013567ffffffffffffffff81111561066b5761066a6104c6565b5b6106778c828d01610565565b995099505060208a013567ffffffffffffffff81111561069a576106996104c6565b5b6106a68c828d01610565565b975097505060408a013567ffffffffffffffff8111156106c9576106c86104c6565b5b6106d58c828d01610565565b955095505060606106e88c828d016105e0565b93505060806106f98c828d01610616565b92505060a061070a8c828d01610514565b9150509295985092959850929598565b610723816104eb565b82525050565b600060208201905061073e600083018461071a565b92915050565b600082825260208201905092915050565b7f4f6e6c79206261736520617574686f72697a6564000000000000000000000000600082015250565b600061078b601483610744565b915061079682610755565b602082019050919050565b600060208201905081810360008301526107ba8161077e565b9050919050565b82818337600083830152505050565b6000601f19601f8301169050919050565b60006107ed8385610744565b93506107fa8385846107c1565b610803836107d0565b840190509392505050565b610817816105bb565b82525050565b610826816105f5565b82525050565b600060e0820190508181036000830152610847818c8e6107e1565b9050818103602083015261085c818a8c6107e1565b9050818103604083015261087181888a6107e1565b9050610880606083018761080e565b61088d608083018661081d565b61089a60a083018561071a565b6108a760c083018461071a565b9b9a5050505050505050505050565b600060e0820190506108cb600083018d61071a565b81810360208301526108de818b8d6107e1565b905081810360408301526108f381898b6107e1565b905081810360608301526109088187896107e1565b9050610917608083018661080e565b61092460a083018561081d565b61093160c083018461071a565b9b9a5050505050505050505050565b7f455243313136373a20637265617465206661696c656400000000000000000000600082015250565b6000610976601683610744565b915061098182610940565b602082019050919050565b600060208201905081810360008301526109a581610969565b905091905056fea2646970667358221220d376637797fc3a9f5eaebc30b2bc7e4a321c271ee7f5c6142addf70a61b39fb764736f6c63430008120033",
  "linkReferences": {},
  "deployedLinkReferences": {}
}